# Some subs testing

iCONNECT
I8=FIX.4.2|35=A|34=1|49=TW|50=TARGETSUB|142=TARGETLOC|52=<TIME>|56=ISLD|57=SENDERSUB|143=SENDERLOC|98=0|108=6|
E8=FIX.4.2|9=120|35=A|34=1|49=ISLD|50=SENDERSUB|52=00000000-00:00:00.000|56=TW|57=TARGETSUB|142=SENDERLOC|143=TARGETLOC|369=1|98=0|108=6|10=0|

# disconnect
I8=FIX.4.2|35=5|34=2|49=TW|50=TARGETSUB|142=TARGETLOC|52=<TIME>|56=ISLD|57=SENDERSUB|143=SENDERLOC|
E8=FIX.4.2|9=109|35=5|34=2|49=ISLD|50=SENDERSUB|52=00000000-00:00:00.000|56=TW|57=TARGETSUB|142=SENDERLOC|143=TARGETLOC|369=2|10=0|
eDISCONNECT
