iCONNECT

I8=FIX.4.2|35=A|34=1|49=TW|50=TARGETSUB|142=TARGETLOC|369=0|52=<TIME>|56=ISLD|57=SENDERSUB|143=SENDERLOC|98=0|108=6|
E8=FIX.4.2|9=120|35=A|34=1|49=ISLD|50=SENDERSUB|52=0|56=TW|57=TARGETSUB|142=SENDERLOC|143=TARGETLOC|369=1|98=0|108=6|10=113|

# Send a heartbeat with a seqnum that is way too high, should trigger a single resend for the first 2500 msg chunk
I8=FIX.4.2|35=0|34=7601|49=TW|50=TARGETSUB|52=<TIME>|369=1|56=ISLD|57=SENDERSUB|142=TARGETLOC|143=SENDERLOC|
E8=FIX.4.2|9=121|35=2|34=2|49=ISLD|50=SENDERSUB|52=0|56=TW|57=TARGETSUB|142=SENDERLOC|143=TARGETLOC|369=1|7=2|16=2501|10=0|

# Send a sequence reset message to "fast-forward" to the seqnum of the second chunk, then a heartbeat, should trigger the sending of the second chunk
I8=FIX.4.2|35=4|34=2|49=TW|50=TARGETSUB|52=<TIME>|56=ISLD|57=SENDERSUB|142=TARGETLOC|143=SENDERLOC|123=Y|36=2501|
I8=FIX.4.2|35=0|34=2501|49=TW|50=TARGETSUB|52=<TIME>|369=2|56=ISLD|57=SENDERSUB|142=TARGETLOC|143=SENDERLOC|
E8=FIX.4.2|9=127|35=2|34=3|49=ISLD|50=SENDERSUB|52=0|56=TW|57=TARGETSUB|142=SENDERLOC|143=TARGETLOC|369=2500|7=2502|16=5001|10=0|

# And again...
I8=FIX.4.2|35=4|34=2502|49=TW|50=TARGETSUB|52=<TIME>|56=ISLD|57=SENDERSUB|142=TARGETLOC|143=SENDERLOC|123=Y|36=5001|
I8=FIX.4.2|35=0|34=5001|49=TW|50=TARGETSUB|52=<TIME>|369=3|56=ISLD|57=SENDERSUB|142=TARGETLOC|143=SENDERLOC|
E8=FIX.4.2|9=127|35=2|34=4|49=ISLD|50=SENDERSUB|52=0|56=TW|57=TARGETSUB|142=SENDERLOC|143=TARGETLOC|369=5000|7=5002|16=7501|10=0|

# And again...
I8=FIX.4.2|35=4|34=5002|49=TW|50=TARGETSUB|52=<TIME>|56=ISLD|57=SENDERSUB|142=TARGETLOC|143=SENDERLOC|123=Y|36=7501|
I8=FIX.4.2|35=0|34=7501|49=TW|50=TARGETSUB|52=<TIME>|369=4|56=ISLD|57=SENDERSUB|142=TARGETLOC|143=SENDERLOC|
E8=FIX.4.2|9=127|35=2|34=5|49=ISLD|50=SENDERSUB|52=0|56=TW|57=TARGETSUB|142=SENDERLOC|143=TARGETLOC|369=7500|7=7502|16=7600|10=0|

iDISCONNECT
