# Make sure we're sending the correct LastMsgSeqNumProcessed

iCONNECT
I8=FIX.4.2|35=A|34=1|49=TW|50=TARGETSUB|142=TARGETLOC|369=0|52=<TIME>|56=ISLD|57=SENDERSUB|143=SENDERLOC|98=0|108=6|
E8=FIX.4.2|9=120|35=A|34=1|49=ISLD|50=SENDERSUB|52=00000000-00:00:00.000|56=TW|57=TARGETSUB|142=SENDERLOC|143=TARGETLOC|369=1|98=0|108=6|10=0|

# wait for two heartbeats
E8=FIX.4.2|9=109|35=0|34=2|49=ISLD|50=SENDERSUB|52=00000000-00:00:00.000|56=TW|57=TARGETSUB|142=SENDERLOC|143=TARGETLOC|369=1|10=0|
I8=FIX.4.2|35=0|34=2|49=TW|50=TARGETSUB|142=TARGETLOC|52=<TIME>|56=ISLD|57=SENDERSUB|143=SENDERLOC|
E8=FIX.4.2|9=109|35=0|34=3|49=ISLD|50=SENDERSUB|52=00000000-00:00:00.000|56=TW|57=TARGETSUB|142=SENDERLOC|143=TARGETLOC|369=2|10=0|

# wait for test request
E8=FIX.4.2|9=118|35=1|34=4|49=ISLD|50=SENDERSUB|52=00000000-00:00:00.000|56=TW|57=TARGETSUB|142=SENDERLOC|143=TARGETLOC|369=2|112=TEST|10=210|
I8=FIX.4.2|35=0|34=3|49=TW|50=TARGETSUB|142=TARGETLOC|52=<TIME>|56=ISLD|57=SENDERSUB|143=SENDERLOC|112=TEST|

# wait for two heartbeats
E8=FIX.4.2|9=109|35=0|34=5|49=ISLD|50=SENDERSUB|52=00000000-00:00:00.000|56=TW|57=TARGETSUB|142=SENDERLOC|143=TARGETLOC|369=3|10=0|
I8=FIX.4.2|35=0|34=4|49=TW|50=TARGETSUB|142=TARGETLOC|52=<TIME>|56=ISLD|57=SENDERSUB|143=SENDERLOC|
E8=FIX.4.2|9=109|35=0|34=6|49=ISLD|50=SENDERSUB|52=00000000-00:00:00.000|56=TW|57=TARGETSUB|142=SENDERLOC|143=TARGETLOC|369=4|10=0|

# send a test request
I8=FIX.4.2|35=1|34=5|369=1|52=<TIME>|49=TW|50=TARGETSUB|142=TARGETLOC|56=ISLD|57=SENDERSUB|143=SENDERLOC|112=mytestrequest|
E8=FIX.4.2|9=127|35=0|34=7|49=ISLD|50=SENDERSUB|52=0|56=TW|57=TARGETSUB|142=SENDERLOC|143=TARGETLOC|369=5|112=mytestrequest|

# send logout
I8=FIX.4.2|35=5|34=6|49=TW|50=TARGETSUB|52=<TIME>|56=ISLD|57=SENDERSUB|142=TARGETLOC|143=SENDERLOC|369=7|58=bye|
E8=FIX.4.2|9=109|35=5|34=8|49=ISLD|50=SENDERSUB|52=0|56=TW|57=TARGETSUB|142=SENDERLOC|143=TARGETLOC|369=6|

eDISCONNECT
